S00D0000325F6779616B2E733337AA
S11300000000022091010000BD010000BD010000BC
S1130010BD010000BD010000BD010000BD010000E4
S1130020BD010000BD010000BD010000BD010000D4
S1130030BD010000BC010000BD010000BD010000C5
S1130040BD010000BD010000BD010000BD010000B4
S1130050BD010000BD010000BD010000BD010000A4
S1130060BD010000BD010000BD010000BD01000094
S1130070BD010000BD010000BD010000BD01000084
S1130080BD010000BD010000BD010000BD01000074
S1130090BD010000BD010000BD010000BD01000064
S11300A0BD010000BD010000BD010000BD01000054
S11300B0BD010000BD010000BD010000BD01000044
S11300C0BD010000BD010000BD010000BD01000034
S11300D0BD010000BD010000BD01000010B5054CCC
S11300E0237833B9044B13B10448AFF300800123E0
S11300F0237010BD6800002000000000C002000052
S113010008B5034B1BB103490348AFF3008008BD96
S1130110000000006C000020C0020000154B002B02
S113012008BF134B9D46A3F5803A00218B460F462A
S11301301348144A121A00F0ABF80F4B002B00D0EE
S113014098470E4B002B00D0984700200021040054
S11301500D000D48002802D00C48AFF3008000F0D9
S113016073F82000290000F039F800F059F800BFB6
S11301700000080000000220000000000000000051
S1130180680000208400002000000000000000003F
S1130190064880470649074A074B9A42BEBF51F8B2
S11301A0040B42F8040BF8E7FFF7B8FFC1010000A5
S11301B0CC0200000000002068000020FEE700BF21
S11301C080B400AF034B044A9A6000BFBD4680BCB4
S11301D0704700BF00ED00E00000000080B400AFF5
S11301E00C4B1B680B4A43F4005313600A4B1B6807
S11301F0094A43F480631360074B1B68064A43F4BF
S113020080431360054B1B68044A43F004031360E6
S1130210FEE700BF44800C40946000409C600040B6
S113022008B5074B044613B10021AFF30080054B1A
S11302301868836A03B19847204600F031F800BF7C
S113024000000000BC02000070B500250C4E0D4CEF
S1130250A41BA410A54209D100F024F800250A4EDD
S11302600A4CA41BA410A54205D170BD56F8253034
S113027098470135EEE756F8253098470135F2E7FF
S11302806000002060000020600000206400002066
S113029003460244934200D1704703F8011BF9E777
S11302A0FEE700BFF8B500BFF8BC08BC9E46704727
S11302B0F8B500BFF8BC08BC9E467047000000209B
S10702C00000000036
S10B02C458FEFF7F0100000059
S11302CC000000000000000000000000000000001E
S11302DC000000000000000000000000000000000E
S11302EC00000000000000000000000000000000FE
S11302FC00000000000000000000000000000000EE
S113030C00000000000000000000000000000000DD
S113031C00000000000000000000000000000000CD
S10B032C01010000DD000000E6
S90301916A
